:020000040800F2
:10000000B0050020A9010008DB1700086D140008E6
:10001000D9170008DD030008D11D0008000000000A
:10002000000000000000000000000000DF170008D2
:10003000DF03000800000000DD170008E1170008DA
:10004000C3010008C3010008C3010008C301000880
:10005000C3010008C3010008C3010008C301000870
:10006000C3010008C3010008C3010008C301000860
:10007000C3010008C3010008C3010008C301000850
:10008000C3010008C3010008C3010008000000000C
:10009000000000000000000000000000C301000894
:1000A000C3010008C3010008C3010008C301000820
:1000B000C3010008C3010008C3010008C301000810
:1000C000C3010008C3010008C3010008C301000800
:1000D000C3010008C3010008C301000800000000BC
:1000E000C3010008C3010008C301000800000000AC
:1000F000000000000000000000000000C301000834
:1001000000000000C3010008C3010008C30100088B
:1001100000000000000000000000000000000000DF
:10012000C3010008C3010008C3010008C30100089F
:10013000C3010008000000000000000000000000F3
:10014000000000000000000000000000C3010008E3
:10015000C3010008C3010008C3010008C30100086F
:10016000C3010008C30100080000000000000000F7
:10017000000000000000000000000000000000007F
:1001800000000000C30100080000000000000000A3
:10019000C3010008DFF80CD000F07AF800480047EF
:1001A000111E0008B0050020064880470648004799
:1001B000FEE7FEE7FEE7FEE7FEE7FEE7FEE7FEE717
:1001C000FEE7FEE76D180008950100082DE9F05FD5
:1001D0000546002092469B468846064681464024B6
:1001E0001BE0284641464746224600F041F8534668
:1001F0005A46C01A914110D311461846224600F0C3
:1002000028F82D1A67EB01084F46224601200021ED
:1002100000F01FF817EB00094E41201EA4F1010465
:10022000DFDC484631462A464346BDE8F09FD2B25D
:1002300001E000F8012B491EFBD270470022F6E7CF
:1002400010B513460A4604461946FFF7F0FF20464C
:1002500010BD202A04DB203A00FA02F1002070478A
:100260009140C2F1200320FA03F3194390407047F4
:10027000202A04DB203A21FA02F00021704721FAFB
:1002800002F3D040C2F12002914008431946704762
:10029000064C074D06E0E06840F0010394E80700D3
:1002A00098471034AC42F6D3FFF778FF301F0008B0
:1002B000501F0008464910B54A6822F440324A608F
:1002C0004A6843681A434A6001684A6822F48072A7
:1002D0004A6001684A68036942EA03224A60016889
:1002E0004A6822F040724A6001684A6883681A438B
:1002F0004A6001688A6822F400628A6001688A683C
:10030000C3681A438A60816A6FF07062D1420168E3
:100310008A6822F070628A6001688A680CD0836AF9
:100320001A438A6001688A6822F040528A60016834
:100330008A68C36A1A4301E022F040528A60016869
:100340008A6822F002028A6001688A68037E42EAB3
:1003500043028A6090F82010002901684A680FD093
:1003600042F400624A6001684A6822F460424A60CE
:1003700001684A68174C436A04EB43331A4301E0AF
:1003800022F400624A600168CA6A22F47002CA62FA
:100390000168CA6A838B104C04EB03531A43CA6288
:1003A00001688A6822F400728A6001688A6890F89D
:1003B000303042EA43228A6001688A6822F480620F
:1003C0008A6001688A68406942EA8020886010BDBE
:1003D0000023014000E0FFFF0000F0FFFEE7704750
:1003E00078B50024009490F83C20012A19D001220D
:1003F00080F83C200A6807230568092A13D9EE68AB
:100400000A3A02EB420293409E43EE600B788A6800
:100410000A3B03EB43039A400368DD682A43DA6032
:1004200010E0022078BD2E6902EB420293409E4309
:100430002E610B788A6803EB43039A4003681D69B9
:100440002A431A614A681F23072A13D205686E6B74
:10045000521E02EB820293409E436E630B790A8820
:100460005B1E92B203EB83039A4003685D6B2A43E1
:100470005A6327E005680D2A12D22E6BD21F02EBB9
:10048000820293409E432E630B790A88DB1F92B24F
:1004900003EB83039A4003681D6B2A431A6311E040
:1004A000EE6A0D3A02EB820293409E43EE620B79B4
:1004B0000A880D3B92B203EB83039A400368DD6A1E
:1004C0002A43DA62164B0568144A9D4206D10D682C
:1004D000122D03D1556845F48005556005689D428D
:1004E00018D10B68102B01D0112B13D1536843F492
:1004F00000035360096810290CD10A490A4A0968A7
:10050000B1FBF2F101EB8101490000E0491E0091CD
:100510000029FBD180F83C40002078BD0023014039
:10052000002001400C00002040420F000068C06C19
:10053000704770B504004FF0000503D0206C002612
:1005400010B107E0012070BD204600F01DF8666480
:1005500084F83C60206CC00610D4206C20F48850D5
:1005600040F0020020642046FFF7A4FE6664206C81
:1005700020F0020040F00100206400E0012584F832
:100580003C60284670BD000010B586B004461421BA
:100590006846FFF753FE1149206888421CD1104875
:1005A0000021026842F480720260006800F48070EA
:1005B00005900B481438026842F00402026000689B
:1005C00000F0040005903F2000900320CDE90101D8
:1005D0006946044800F0E8F806B010BD002001406C
:1005E00044380240000802402DE9F041044600680A
:1005F0000D4681684FF0000749050BD58068C0059E
:1006000008D5206C40F02000206484F83C70012064
:10061000BDE8F08100F092F906460FE0681C0DD0AD
:1006200025B100F08BF9801BA84207D9206C40F05F
:100630000400206484F83C700320E9E72068006827
:100640008007EBD521686FF012000860206C40F441
:10065000007020642068816811F0405F13D1217E12
:1006600089B9C16A11F4700F02D0806840050AD4BC
:10067000206C20F480702064206CC00403D4206CB3
:1006800040F0010020640020C2E7000018B50021FE
:10069000009190F83C20012A07D0012280F83C20EC
:1006A00002689368DB0702D011E0022018BD93684E
:1006B00043F001039360204A204B1268B2FBF3F22F
:1006C00002EB420200E0521E0092002AFBD10268B7
:1006D0009368DB072DD0036C40F20164A34343F41D
:1006E0008073036453685B0505D5036C23F40053E2
:1006F00043F480530364036CDB0404D5436C23F0A0
:100700000603436400E0416480F83C100C496FF03C
:100710002203136049680068C90602D0094988426B
:1007200007D1816811F0405F03D1816841F08041B9
:100730008160002018BD00000C00002040420F0026
:10074000002301400020014090F83C1001290CD00A
:10075000012180F83C1001688A6822F001028A6059
:1007600001688968C90702D007E002207047016C60
:1007700021F4885141F001010164002180F83C100E
:100780000846704770B5044600F0D8F80546601C6E
:1007900002D004480078044400F0D0F8401BA04286
:1007A000FAD370BD000000202DE9F84FDFF860B1EA
:1007B00000224FF001084FF0030A4FF00F090BF130
:1007C000040E00BF0B6808FA02F42340A3426ED166
:1007D0004D68022D01D0122D0ED1D50800EB850CED
:1007E000DCF820505607F70E09FA07F6B5430E69F4
:1007F000BE402E43CCF82060066855000F790AFAF7
:1008000005FC07F0030726EA0C06AF4037430760F4
:100810004E68012E05D0022E03D0112E01D0122ECB
:100820000ED18668CF6826EA0C06AF403743876052
:100830004668A6430C79C4F30014944034434460E2
:10084000C6688C6826EA0C06AC403443C4604C6829
:10085000E40056D52F4C256845F480452560246872
:1008600022F0030504F4804400942B4C2E19D6F892
:10087000084895072F0F09FA07F5AC43274DA84202
:1008800001D1002515E0264DA84201D1012510E037
:10089000244DA84201D102250BE0234DA84201D1ED
:1008A000032506E0214DA84202D1042501E028E0FD
:1008B0000725BD402543C6F80858DBF800405D46D3
:1008C0004E689C43F60300D51C432C60DEF80040C4
:1008D00075464E689C43B60300D51C432C600C4DF6
:1008E00008352C684E689C43F60200D51C432C60EA
:1008F000074D0C352C684E689C43B60200D51C434E
:100900002C60521C102AFFF45DAFBDE8F88F000088
:10091000003C0140443802400030014000000240E9
:100920000004024000080240000C02400010024097
:100930000AB1816170470904FBE700000148806843
:1009400070470000000000200248816802781144CE
:1009500081607047000000200B4810B5016841F429
:1009600000710160016841F480610160016841F437
:1009700080710160032000F063F8002000F006F8A9
:1009800000F024F8002010BD003C024070B50D4D71
:1009900004464FF47A712878B1FBF0F00A490968EF
:1009A000B1FBF0F000F0D4FA48B9102C07D20022C5
:1009B0002146501E00F024F800206C6070BD01201C
:1009C00070BD0000000000200C0000200B4882B029
:1009D000016841F480410160006800F480400090AB
:1009E0000648001F016841F080510160006800F076
:1009F00080500090072002B000F022B84438024036
:100A0000F0B40E4B1B680C46C3F30223C3F1070579
:100A1000042D00D90425191D072901D2002300E067
:100A2000DB1E012606FA05F1491E214099409E4031
:100A3000761E16403143F0BC01F0CBB90CED00E05E
:100A4000064900F0070208684FF6FF03184040EA25
:100A50000220034A10430860704700000CED00E0DC
:100A60000000FA052DE9F0470E46050065D0DFF8D5
:100A70001481D8F80000F7B200F00F00B04207D29E
:100A800088F80070D8F8000000F00F00B04254D190
:100A900028683D4C810712D5400703D5206840F4F3
:100AA000E05020602878000703D5206840F46040BB
:100AB00020602068A96820F0F000084320602878B2
:100AC000C0072DD0304968680839012812D00228A3
:100AD00013D0032811D00968890700292DDA21686D
:100AE00021F0030101432160FFF728FF814641F215
:100AF000883A0EE009688903EFE709688901ECE7A5
:100B0000FFF71CFFA0EB0901514502D90320BDE806
:100B1000F0872068696800F00C00B0EB810FEFD11E
:100B2000D8F80010404601F00F01B14207D9077014
:100B3000006800F00F00B04201D00120E7E72878FC
:100B4000400705D52068E96820F4E050084320609C
:100B50002878000706D52068296920F4604040EA1B
:100B6000C100206000F036F82168084AC1F3031183
:100B7000515CC840064908600020FFF707FF0020CD
:100B8000C5E70000003C024008380240181F00087A
:100B90000C0000200448054900680968044AC1F3B4
:100BA0008221515CC84070470C0000200838024088
:100BB000281F00080448054900680968044AC1F371
:100BC0004231515CC84070470C0000200838024098
:100BD000281F0008154810B5006810F00C021448D2
:100BE00013D04110042A0FD0082A0ED10F4C241F15
:100BF0002268236802F03F025B0207D52068C0F339
:100C00008810A0FB010106E0084610BD2168C1F371
:100C10008811A1FB00010023FFF7D8FA2168C1F376
:100C20000141491C4900B0FBF1F010BD08380240F9
:100C30000024F4002DE9F84F050076D02878DFF87D
:100C4000F8B2BE4CC00749D0DBF800105846C1F3DB
:100C50008101012908D00068C0F3810002280AD16F
:100C6000201D0068400206D52068800336D56868DC
:100C70000028E2D032E06868B0F5803F10D0B0F5CF
:100C8000A02F206810D020F480302060206820F44D
:100C9000802020606868A0B1FFF750FE06460CE097
:100CA000206840F48030F4E740F480202060F7E7CB
:100CB000FFF744FE801B642873D820688003F7D5B3
:100CC0000CE0FFF73BFE064605E000BFFFF736FEEF
:100CD000801B6428F0D820688003F7D42878DFF8D8
:100CE000608280074FF000093ED5DBF800105846BF
:100CF00011F00C0F09D00068C0F3810002280BD15D
:100D00008D48001F0068400206D42068800715D572
:100D1000E868012809D111E0E868B8B10120C8F8F5
:100D20000000FFF70BFE064605E002E1FFF706FEB6
:100D3000801B0228C0D820688007F7D52068296961
:100D400020F0F80040EAC10020600DE0C8F80090F3
:100D5000FFF7F4FD064604E0FFF7F0FD801B0228D4
:100D60001FD820688007F7D42878000722D5724E54
:100D7000744869696C3671B101210160FFF7DEFDCD
:100D8000074604E0FFF7DAFDC01B022809D83068E7
:100D90008007F7D50EE0C0F80090FFF7CFFD0746BB
:100DA00005E083E0FFF7CAFDC01B02287ED830684B
:100DB0008007F7D42878400768D5DFF87CA10027A2
:100DC0000AF1380ADAF80000C0000BD4DAF8001093
:100DD00041F08051CAF80010DAF80000012700F055
:100DE00080500090584E3068C00510D4306840F4F0
:100DF00080703060FFF7A2FD009005E0FFF79EFDD8
:100E00000099401A022851D83068C005F6D54A4EDC
:100E1000A868683601280FD00528306810D020F067
:100E200001003060306820F004003060A868B8B17C
:100E3000FFF784FD00900FE0306840F00100F4E718
:100E400040F004003060F7E7FFF778FD0099411AA1
:100E500041F28830814264D830688007F4D50EE0D2
:100E6000FFF76CFD009007E0FFF768FD0099411A5D
:100E700041F28830814254D830688007F4D42FB1D1
:100E8000DAF8001021F08051CAF80010A869C0B348
:100E9000DBF80010C1F3810102294AD0022848463C
:100EA00007D0C8F86000FFF749FD00E039E00546CB
:100EB0003AE04746C8F86000FFF740FD064604E008
:100EC000FFF73CFD801B02282BD820688001F7D457
:100ED000D5E907010843A96A1C4A490802EB014108
:100EE0006A6A41EA8211084395F82C1040EA0161D0
:100EF0001148001F016001203866FFF71FFD0546FD
:100F000005E014E0FFF71AFD401B022809D820680D
:100F10008001F7D50BE000BFFFF710FD401B022852
:100F200002D90320BDE8F88F20688001F4D40020A6
:100F3000F8E70120F6E700000838024000380240D8
:100F400000004742800E4742007000400000FFFF53
:100F500010B5401EB0F1807F01D3012010BD4FF0CD
:100F6000E02460610F21601700F033FF0020A061D2
:100F700007202061002010BD10B590F83C20012A08
:100F800022D0012280F83C20CA688C6822F440728A
:100F900022434C6822F4806222430C6822F40062EF
:100FA00022430C6922F4805222434C6922F40052FD
:100FB0002243C969002322F480420A4301684A643B
:100FC00080F83C30002010BD022010BD70B590F8B4
:100FD0003C20012A19D0012400F83C4F0222427023
:100FE00050F83C3C5A689D6822F070060A684968CF
:100FF000324325F0800529435A6050F83C2C91601B
:10100000447000210170084670BD022070BD10B50B
:10101000040003D094F83D0010B107E0012010BD9A
:10102000002084F83C00204600F00CF8022084F8F0
:101030003D00211D206800F043FC012084F83D00A4
:10104000002010BD08B501681748814208D1174833
:10105000016841F001010160006800F001000BE04F
:101060001248134A001F914208D1016841F0020161
:101070000160006800F00200009008BD0D4A914236
:1010800007D1016841F004010160006800F004002C
:10109000F2E7094A9142F0D1016841F0080101608C
:1010A000006800F00800E7E7000001404438024013
:1010B0000004004000080040000C004070B50446E9
:1010C00090F83C00012817D0012584F83C500220FC
:1010D00084F83D002068826822F0770222F47F4283
:1010E00082600868502830D00DDC20284DD005DC07
:1010F00098B310283BD148E0022070BD302844D07E
:10110000402834D139E0602828D0702806D0B0F5C6
:10111000805F2CD0B0F5005F29D10AE0CB68D1E91F
:101120000121206800F025FC2068816841F07701EA
:1011300009E0CB68D1E90121206800F01AFC2068A1
:10114000816841F48041816011E0CA684968206883
:1011500000F0C4FC5021206807E016E0CA68496826
:10116000206800F0CCFC6021206800F00CFC84F8C2
:101170003D50002084F83C0070BDCA684968206872
:1011800000F0ACFC40212068EFE7226801461046E1
:10119000EBE7000070B586B0044614216846FFF7FF
:1011A0004DF8294B226800242849022528489A42F4
:1011B00011D10A6842F001020A60096801F00101D8
:1011C00005914FF470610091CDE901540121CDE901
:1011D000034169461EE01F4B1F4E9A421ED10A680A
:1011E00042F001020A600A6802F0010205920A68F0
:1011F00042F002020A60096801F002010591C02173
:101200000091CDE901546946CDE90345FFF7CCFAD9
:10121000032010E0FFF7C8FA06B070BD0F48824205
:10122000FAD1086840F002000860086800F0020087
:1012300005904FF440700090CDE901546946304666
:10124000CDE90345E6E700000000014030380240E8
:10125000000002400004004000040240000800407A
:1012600070B5044690F83C000D4601280DD00126CB
:1012700084F83C60022084F83D0042B1042A18D072
:10128000082A2AD00C2A4DD139E0022070BD2068EE
:1012900000F082FB2068816941F0080181612068CB
:1012A000816921F004018161206881692A69114303
:1012B00011E0206800F098FB2068816941F400612A
:1012C00081612068816921F4806181612068816980
:1012D0002A6941EA0221816124E0206800F0B0FB24
:1012E0002068C16941F00801C1612068C16921F02D
:1012F0000401C1612068C1692A69114311E02068B5
:1013000000F0CAFB2068C16941F40061C161206836
:10131000C16921F48061C1612068C1692A6941EA1B
:101320000221C16184F83D60002084F83C0070BD5A
:1013300010B5040003D094F83D0010B107E001207F
:1013400010BD002084F83C00204600F00CF802207C
:1013500084F83D00211D206800F0B2FA012084F8D5
:101360003D00002010BD704710B504460068012202
:1013700000F0F2FA09492068884203D1416C41F437
:10138000004141642068816801F00701062903D00B
:10139000016841F001010160002010BD0000014022
:1013A00070B5040004D094F83900002510B106E0AF
:1013B000012070BD84F83850204600F023F8242026
:1013C00084F839002068C16821F40051C1602046CA
:1013D00000F0A8FB2068016921F4904101612068B8
:1013E000416921F02A0141612068C16841F400513E
:1013F000C160E563202084F8390084F83A000020B9
:1014000070BD000010B586B0044614216846FEF792
:1014100015FF1349206888421FD112480021026835
:1014200042F400320260006800F4003005900D487C
:101430001038026842F001020260006800F001000A
:1014400005900C2000900220CDE901010720CDE994
:10145000031069460448FFF7A7F906B010BD000065
:10146000004400404038024000000240FEE7000017
:101470007FB500212648009101910291234A0391F2
:10148000026001244FF480320461C0E90121047636
:1014900080F820101F4AC0E90A210625C561C160F5
:1014A00080F830104461FFF744F80A20CDE90004C9
:1014B0000720029069461648FEF792FF0B20009025
:1014C0000220019069461248FEF78AFF0C20009026
:1014D0000320019069460E48FEF782FF0D20009020
:1014E0000420019069460A48FEF77AFF0E2000901A
:1014F0000520019069460648FEF772FF0F20CDE9EE
:10150000000569460248FEF76BFF7FBD00200140E1
:10151000100000200100000F30B587B0142168468C
:10152000FEF78CFE1E480024016841F004010160B2
:10153000016801F004010591016841F0800101603A
:10154000016801F080010591016841F0010101602D
:10155000016801F001010591016841F0020101609B
:101560000068104D00F0020005900022202128465E
:10157000FFF7DEF94FF4005000900B48CDE901046D
:1015800069460A48FFF710F9202000900120CDE9B4
:101590000104694628460394FFF706F907B030BDF9
:1015A00030380240000002400000211000080240D4
:1015B00010B596B000240F941094119412941394C3
:1015C0001C2168461494FEF739FE202107A8FEF777
:1015D00035FE2648244901605321C0E901146321E6
:1015E000C0E9031444618461FFF711FD4FF480509A
:1015F0000F900FA91D48FFF761FD1C48FFF798FEEB
:10160000139413A919481494FFF7E0FC6020CDE966
:10161000000402940394049405940022694613483C
:101620000694FFF71DFE042269461048FFF718FED6
:10163000082269460D48FFF713FE0C2269460B4845
:10164000FFF70EFE0794089409944FF400500A9493
:10165000CDE90B4007A905480E94FFF78DFC034820
:10166000FFF798FD16B010BD0000014058000020A3
:1016700010B58EB000240794089409940A940B9432
:101680001C2168460C94FEF7D9FD1E481C490160D8
:101690005321C0E901146321C0E903148461FFF7F9
:1016A000B6FC4FF48050079007A91648FFF706FDD7
:1016B0001448FFF73DFE0B940BA912480C94FFF75A
:1016C00085FC6020CDE900040294002269460D48A3
:1016D0000494FFF7C5FD042269460A48FFF7C0FDE0
:1016E000082269460748FFF7BBFD0C2269460548FA
:1016F000FFF7B6FD0348FFF74DFD0EB010BD00002B
:10170000000400409800002010B58EB0002407941B
:10171000089409940A940B941C2168460C94FEF7D3
:101720008DFD18481649C0E900148460C460046146
:101730008461FFF76CFC4FF48050079007A91148B3
:10174000FFF7BCFC0F48FFF7F3FD0B940BA90D4806
:101750000C94FFF73BFC6020CDE9000402940822C2
:10176000694608480494FFF77BFD0C22694605484A
:10177000FFF776FD0348FFF70DFD0EB010BD00002A
:1017800000080040D800002010B586B000241148A1
:10179000009401940294039404940D49059401600B
:1017A0005321C0E901146321C0E903148461FFF7E8
:1017B0002EFC4FF48050009069460648FFF77EFCEF
:1017C000049404A903480594FFF700FC06B010BD7B
:1017D000000C004018010020FEE77047704770477A
:1017E000FFF7B2B830B593B030216846FEF726FD5A
:1017F00014210CA8FEF722FD1A480024016841F0CC
:1018000080510160006800F0805011901648016816
:1018100021F4404141F4004101600068022500F4D8
:1018200040401190012003901020009506950490EF
:10183000CDE907404FF4A870099004200A900720D2
:101840000B906846FFF7F6F90F20CDE90C05E8028A
:10185000CDE90E4002210CA81094FFF703F913B054
:1018600030BD000040380240007000401048016860
:1018700041F4700101600F48016841F0010101600D
:101880000C4A00210832116002680B4B1A400260BA
:10189000031D0A4A1A60026822F480220260054889
:1018A0000C3001600249580680390860704700001A
:1018B00088ED00E000380240FFFFF6FE1030002403
:1018C000F0B502681D4B1E4C9F031E4D1E4E9842E4
:1018D00007D0B84205D0A04203D0A84201D0B04200
:1018E00004D122F0700C4A6842EA0C02984210D0EF
:1018F000B8420ED0A0420CD0A8420AD0B04208D0C4
:10190000124CA04205D0124CA04202D0114CA04271
:1019100003D122F44074CA6822434C6922F0800249
:10192000224302608A68C2620A688262984201D1D8
:101930000969016301214161F0BD0000000001401F
:101940000004004000080040000C0040004001403E
:10195000004401400048014010B501F01F0301217F
:10196000046A99408C430462016A9A4011430162FF
:1019700010BD10B5846842EA032224F47F440A4370
:101980002243826010BD826822F070020A4342F056
:10199000070181607047000030B5026A22F0010241
:1019A0000262026A4368846924F073050C682C4360
:1019B00022F002058A682A430A4DA8420BD122F080
:1019C0000805CA6823F440732A434D6922F00402D3
:1019D0001D438B692B434360846149684163026204
:1019E00030BD00000000014030B5026A22F0100254
:1019F0000262026A436884690D6824F4E64444EA9A
:101A000005248D6822F0200242EA05120B4DA842FF
:101A10000ED1CD6822F0800242EA05124D6923F40E
:101A2000406343EA85038D6922F0400243EA85035F
:101A30004360846149688163026230BD00000140F7
:101A400030B5026A22F480720262036A4268C46995
:101A500023F4007324F073050C682C438D6843EA6B
:101A600005230C4DA8420ED1CD6823F4006343EA50
:101A700005234D6922F4405242EA05128D6923F490
:101A8000806342EA05124260C4614968C16303622F
:101A900030BD00000000014030B5026A22F48052DF
:101AA0000262046A4268C3690D6823F4E64343EAAC
:101AB00005238D6824F4005444EA0534064DA842F9
:101AC00004D14D6922F4804242EA85124260C3612A
:101AD00049680164046230BD0000014010B5036A2A
:101AE000046A24F001040462846924F0F00444EAE6
:101AF000021423F00A020A438461026210BD10B589
:101B0000036A23F0100303628369046A23F47043B9
:101B100043EA023224F0A00343EA01118261016228
:101B200010BD00002DE9F041044600680169E2683B
:101B300021F44051114301612169A068E269084321
:101B40006169114322680843D16849F20C639943E3
:101B50000143D16020684169A26921F440711143B9
:101B60004161E2696425B2F5004F974897492268C0
:101B70004FF032083FD08A4201D082427CD1FFF739
:101B800019F800EBC00101EB001061688900B0FB9F
:101B9000F1F6FFF70FF800EBC00101EB00106168F0
:101BA0008900B0FBF1F0B0FBF5F06FF0180148438D
:101BB00006EB800108EB0110B0FBF5F000F0F00639
:101BC000FEF7F8FF00EBC00101EB0010616889002F
:101BD000B0FBF1F0B0FBF5F006EB0016FEF7EAFF04
:101BE00000EBC00101EB001061688900B0FBF1F768
:101BF000FEF7E0FFD2E08A4201D082423DD1FEF7FB
:101C0000D9FF00EBC00101EB001061684900B0FB97
:101C1000F1F0B0FBF5F00601FEF7CCFF00EBC001E0
:101C200001EB001061684900B0FBF1F7FEF7C2FF5D
:101C300000EBC00101EB001061684900B0FBF1F05E
:101C4000B0FBF5F06FF01801484307EB800108EB9B
:101C5000C100B0FBF5F000F0F80006EB4006FEF71F
:101C6000A9FF00EBC00101EB001061684900B0FB67
:101C7000F1F7FEF79FFF3CE055E0FEF78BFF00EB2E
:101C8000C00101EB001061684900B0FBF1F0B0FB4E
:101C9000F5F00601FEF77EFF00EBC00101EB00103E
:101CA00061684900B0FBF1F7FEF774FF00EBC0017B
:101CB00001EB001061684900B0FBF1F0B0FBF5F0FA
:101CC0006FF01801484307EB800108EBC100B0FB3F
:101CD000F5F000F0F80006EB4006FEF75BFF00EBC6
:101CE000C00101EB001061684900B0FBF1F7FEF79D
:101CF00051FF00EBC00101EB001061684900B0FB2F
:101D0000F1F0B0FBF5F06FF01801484307EB8001EC
:101D100008EBC100B0FBF5F000F00700216830448B
:101D20008860BDE8F081FEF735FF00EBC00101EBF4
:101D3000001061688900B0FBF1F6FEF72BFF00EBA5
:101D4000C00101EB001061688900B0FBF1F0B0FB4D
:101D5000F5F06FF01801484306EB800108EB011025
:101D6000B0FBF5F000F0F006FEF714FF00EBC00149
:101D700001EB001061688900B0FBF1F0B0FBF5F0F9
:101D800006EB0016FEF706FF00EBC00101EB0010AA
:101D900061688900B0FBF1F7FEF7FCFE00EBC001C3
:101DA00001EB001061688900B0FBF1F0B0FBF5F0C9
:101DB0006FF01801484307EB800108EB0110B0FBFE
:101DC000F5F000F00F00A9E70014014000100140F9
:101DD000FEE70907090E002804DB00F1E02080F887
:101DE0000014704700F00F0000F1E02080F8141D8F
:101DF000704702E008C8121F08C1002AFAD17047D4
:101E00007047002001E001C1121F002AFBD170477A
:101E1000FEF7A2FDFFF7E6FCFFF77EFBFFF728FCCD
:101E20003B483A490C2201604FF4E1314160002106
:101E30008160C160C0E904128161C161FFF7B0FA3D
:101E4000FFF762FCFFF7A0FCFFF7B2FBFFF710FB08
:101E500000213048FFF788FA2E4D32242868446369
:101E600004212846FFF780FA286884630821284661
:101E7000FFF77AFA2868C4630C212846FFF774FA42
:101E800028680464002105F14000FFF76DFA403531
:101E90002868446304212846FFF766FA28688463AB
:101EA00008212846FFF760FA2868C4630C212846F9
:101EB000FFF75AFA28680464082105F14000FFF78B
:101EC00053FA40352868C4630C212846FFF74CFAC2
:101ED00028680464C0350F484838FEF7D7FB002453
:101EE0000C4864214838FEF77FFB0A484838FEF763
:101EF0001DFB45F82400641C062CF1DB054848381E
:101F0000FEF722FC6420FEF73DFCE4E700440040BD
:101F100058010020580000200000000000000000D0
:101F2000010203040607080900000000010203047F
:101F3000501F00080000002010000000F21D0008E3
:101F4000601F000810000020A0050000021E00080D
:101F50000100000010000000000000000024F40058
:040000050800019559
:00000001FF
